{"type":"xcmtransfer","msg":{"sectionMethod":"ethereum:transact","extrinsicHash":"0xf1c5873178f4bb71596714eac0b632476127b8defd2b64bcef4879fd56f43d91","extrinsicID":"3139541-6","transferIndex":0,"xcmIndex":0,"relayChain":"moonbase-relay","chainID":61000,"chainIDDest":60888,"paraID":1000,"paraIDDest":888,"blockNumber":3139541,"fromAddress":"0xdcb4651b5bbd105cda8d3ba5740b6c4f02b9256d","destAddress":"0x02931229f6fcc2b02ada8638143fe0dfd0b313ae","asset":false,"rawAsset":false,"sourceTS":1667877276,"amountSent":0,"incomplete":0,"isFeeItem":1,"msgHash":"0x7647639f843cca8f59c6595a68540bd2702cb9a92d9474d343622590d43fa763","sentAt":7596323,"xcmSymbol":"BetaDev","xcmInteriorKey":"[{\"parachain\":888},{\"palletInstance\":3}]~moonbase-relay","innerCall":"0x260000c0270900000000000000000000000000000000000000000000000000000000000100000000000000000000000000000000000000080d00000000000000000000000000000000000000000000000000000000000000001108b648f3fe00000000000000000000000000000000000000000000000000000000000000c0000000000000000000000000ffffffffa7b17e706a2391f346d8c82b6788db4100000000000000000000000000000000000000000000000000000003b9aca0000000000000000000000000000000000000000000000000000000000000000180000000000000000000000000000000000000000000000000006a94d74f43000000000000000000000000000000000000000000000000000000000009502f90000000000000000000000000000000000000000000000000000000000000000001000000000000000000000000000000000000000000000000000000000000004000000000000000000000000000000000000000000000000000000000000000010000000000000000000000000000000000000000000000000000000000000020000000000000000000000000000000000000000000000000000000000000000500000003e8000000000000000000000000000000000000000000000000000000000000000000000000000000000000000000000000000000000000000000005f260000c02709000000000000000000000000000000000000000000000000000000000001003a7798ca28cfe64c974f8196450e1464f43a0d1e000000000000000000000000000000000000000000000000000000000000000010cde4efa9000000","xcmType":"xcmtransact"},"source":"bifrost-dot","commit":"1.0.0-d927045"}
{"type":"xcmmessage","msg":{"chainID":61000,"chainIDDest":60888,"isIncoming":0,"msgHash":"0x7647639f843cca8f59c6595a68540bd2702cb9a92d9474d343622590d43fa763","msgType":"hrmp","msgHex":"0x02100b010300dcb4651b5bbd105cda8d3ba5740b6c4f02b9256d00040000010403000f0000434fd7946a130000010403000f0000434fd7946a010700902f500906010700a0acb9038109260000c0270900000000000000000000000000000000000000000000000000000000000100000000000000000000000000000000000000080d00000000000000000000000000000000000000000000000000000000000000001108b648f3fe00000000000000000000000000000000000000000000000000000000000000c0000000000000000000000000ffffffffa7b17e706a2391f346d8c82b6788db4100000000000000000000000000000000000000000000000000000003b9aca0000000000000000000000000000000000000000000000000000000000000000180000000000000000000000000000000000000000000000000006a94d74f43000000000000000000000000000000000000000000000000000000000009502f90000000000000000000000000000000000000000000000000000000000000000001000000000000000000000000000000000000000000000000000000000000004000000000000000000000000000000000000000000000000000000000000000010000000000000000000000000000000000000000000000000000000000000020000000000000000000000000000000000000000000000000000000000000000500000003e8000000000000000000000000000000000000000000000000000000000000000000000000000000000000000000000000000000000000000000005f260000c02709000000000000000000000000000000000000000000000000000000000001003a7798ca28cfe64c974f8196450e1464f43a0d1e000000000000000000000000000000000000000000000000000000000000000010cde4efa9000000","msgStr":"{\"v2\":[{\"descendOrigin\":{\"x1\":{\"accountKey20\":{\"network\":{\"any\":null},\"key\":\"0xdcb4651b5bbd105cda8d3ba5740b6c4f02b9256d\"}}}},{\"withdrawAsset\":[{\"id\":{\"concrete\":{\"parents\":0,\"interior\":{\"x1\":{\"palletInstance\":3}}}},\"fun\":{\"fungible\":\"0x0000000000000000006a94d74f430000\"}}]},{\"buyExecution\":{\"fees\":{\"id\":{\"concrete\":{\"parents\":0,\"interior\":{\"x1\":{\"palletInstance\":3}}}},\"fun\":{\"fungible\":\"0x0000000000000000006a94d74f430000\"}},\"weightLimit\":{\"limited\":40000000000}}},{\"transact\":{\"originType\":\"SovereignAccount\",\"requireWeightAtMost\":16000000000,\"call\":{\"encoded\":\"0x260000c0270900000000000000000000000000000000000000000000000000000000000100000000000000000000000000000000000000080d00000000000000000000000000000000000000000000000000000000000000001108b648f3fe00000000000000000000000000000000000000000000000000000000000000c0000000000000000000000000ffffffffa7b17e706a2391f346d8c82b6788db4100000000000000000000000000000000000000000000000000000003b9aca0000000000000000000000000000000000000000000000000000000000000000180000000000000000000000000000000000000000000000000006a94d74f43000000000000000000000000000000000000000000000000000000000009502f90000000000000000000000000000000000000000000000000000000000000000001000000000000000000000000000000000000000000000000000000000000004000000000000000000000000000000000000000000000000000000000000000010000000000000000000000000000000000000000000000000000000000000020000000000000000000000000000000000000000000000000000000000000000500000003e8000000000000000000000000000000000000000000000000000000000000000000000000000000000000000000000000000000000000000000005f260000c02709000000000000000000000000000000000000000000000000000000000001003a7798ca28cfe64c974f8196450e1464f43a0d1e000000000000000000000000000000000000000000000000000000000000000010cde4efa9000000\"}}}]}","blockTS":1667877276,"blockNumber":3139541,"relayChain":"moonbase-relay","sentAt":7596323,"version":"v2","path":"[\"descendOrigin\",\"withdrawAsset\",\"buyExecution\",\"transact\"]","beneficiaries":null},"source":"bifrost-dot","commit":"1.0.0-d927045"}
{"type":"remoteExecution","msg":{"chainID":60888,"transactionHash":"0x1a1419923f5abd811ea591ab5c0981daf1e12b3fd69ca2b8bbcb62ea4a31bcef","substrate":{"extrinsicID":"907892-1","extrinsicHash":"0xb308976fda086d866c27e833ac0984a908b59c7ff964c10733b8841a2424f113"},"status":true,"blockHash":"0x989bd3b961f7fd954d40046648ba9f704e892ed1e1465b3f750962f439a19b0c","blockNumber":907892,"transactionIndex":0,"timestamp":1667877294,"from":"0x02931229f6FCc2B02aDA8638143Fe0dFD0b313aE","to":"0x000000000000000000000000000000000000080D","creates":null,"transfers":[],"swaps":[],"value":0,"txType":2,"fee":0,"burnedFee":0,"txnSaving":0,"gasLimit":600000,"gasUsed":43931,"maxFeePerGas":0,"maxPriorityFeePerGas":0,"baseFeePerGas":0,"gasPrice":0,"nonce":4,"accessList":[],"input":"0xb648f3fe00000000000000000000000000000000000000000000000000000000000000c0000000000000000000000000ffffffffa7b17e706a2391f346d8c82b6788db4100000000000000000000000000000000000000000000000000000003b9aca0000000000000000000000000000000000000000000000000000000000000000180000000000000000000000000000000000000000000000000006a94d74f43000000000000000000000000000000000000000000000000000000000009502f90000000000000000000000000000000000000000000000000000000000000000001000000000000000000000000000000000000000000000000000000000000004000000000000000000000000000000000000000000000000000000000000000010000000000000000000000000000000000000000000000000000000000000020000000000000000000000000000000000000000000000000000000000000000500000003e8000000000000000000000000000000000000000000000000000000000000000000000000000000000000000000000000000000000000000000005f260000c02709000000000000000000000000000000000000000000000000000000000001003a7798ca28cfe64c974f8196450e1464f43a0d1e000000000000000000000000000000000000000000000000000000000000000010cde4efa90000","decodedInput":{"decodeStatus":"success","methodID":"0xb648f3fe","signature":"transactThroughSigned((uint8 parents, bytes[] interior), address feeLocationAddress, uint64 transactRequiredWeightAtMost, bytes call, uint256 feeAmount, uint64 overallWeight)","params":[{"name":"dest","value":["1",["0x00000003e8"]],"type":"tuple"},{"name":"feeLocationAddress","value":"0xffffffffa7b17e706a2391f346d8c82b6788db41","type":"address"},{"name":"transactRequiredWeightAtMost","value":"16000000000","type":"uint64"},{"name":"call","value":"0x260000c02709000000000000000000000000000000000000000000000000000000000001003a7798ca28cfe64c974f8196450e1464f43a0d1e000000000000000000000000000000000000000000000000000000000000000010cde4efa900","type":"bytes"},{"name":"feeAmount","value":"30000000000000000","type":"uint256"},{"name":"overallWeight","value":"40000000000","type":"uint64"}]},"decodedLogs":[],"isConnectedCall":1,"msgHash":"0x7647639f843cca8f59c6595a68540bd2702cb9a92d9474d343622590d43fa763"},"source":"bifrost-dot","commit":"1.0.0-d927045"}
{"type":"xcmmessage","msg":{"chainID":60888,"chainIDDest":61000,"isIncoming":0,"msgHash":"0xa09d73d8fa86bc28c943d8a6c7b5b8ca8a68af7c1d5a08468278598feba7ef2f","msgType":"hrmp","msgHex":"0x02100b01030002931229f6fcc2b02ada8638143fe0dfd0b313ae00040000010403000f0000434fd7946a130000010403000f0000434fd7946a010700902f500906010700a0acb9037d01260000c02709000000000000000000000000000000000000000000000000000000000001003a7798ca28cfe64c974f8196450e1464f43a0d1e000000000000000000000000000000000000000000000000000000000000000010cde4efa900","msgStr":"{\"v2\":[{\"descendOrigin\":{\"x1\":{\"accountKey20\":{\"network\":{\"any\":null},\"key\":\"0x02931229f6fcc2b02ada8638143fe0dfd0b313ae\"}}}},{\"withdrawAsset\":[{\"id\":{\"concrete\":{\"parents\":0,\"interior\":{\"x1\":{\"palletInstance\":3}}}},\"fun\":{\"fungible\":\"0x0000000000000000006a94d74f430000\"}}]},{\"buyExecution\":{\"fees\":{\"id\":{\"concrete\":{\"parents\":0,\"interior\":{\"x1\":{\"palletInstance\":3}}}},\"fun\":{\"fungible\":\"0x0000000000000000006a94d74f430000\"}},\"weightLimit\":{\"limited\":40000000000}}},{\"transact\":{\"originType\":\"SovereignAccount\",\"requireWeightAtMost\":16000000000,\"call\":{\"encoded\":\"0x260000c02709000000000000000000000000000000000000000000000000000000000001003a7798ca28cfe64c974f8196450e1464f43a0d1e000000000000000000000000000000000000000000000000000000000000000010cde4efa900\"}}}]}","blockTS":1667877294,"blockNumber":907892,"relayChain":"moonbase-relay","sentAt":7596326,"version":"v2","path":"[\"descendOrigin\",\"withdrawAsset\",\"buyExecution\",\"transact\"]","beneficiaries":null},"source":"bifrost-dot","commit":"1.0.0-d927045"}
{"type":"remoteExecution","msg":{"chainID":61000,"transactionHash":"0xc4526eef79ad041863e133f41c38dc239c71cf18e2bd7a3cbc05b5247990129e","substrate":{"extrinsicID":"3139544-1","extrinsicHash":"0x4223fe08f48dd20e0e1395556c19cda45c07690c58e11b03a8755878bcc097db"},"status":true,"blockHash":"0x70b5f58c955c462802318ae9a25003d78920d698026bec1a1e2f1aa73adfe426","blockNumber":3139544,"transactionIndex":0,"timestamp":1667877312,"from":"0x29d2FEaDfa02C01871957B824d57479497Cf6D1B","to":"0x3A7798CA28CFE64C974f8196450e1464f43A0d1e","creates":null,"transfers":[],"swaps":[],"value":0,"txType":2,"fee":0,"burnedFee":0,"txnSaving":0,"gasLimit":600000,"gasUsed":50984,"maxFeePerGas":0,"maxPriorityFeePerGas":0,"baseFeePerGas":0,"gasPrice":0,"nonce":20,"accessList":[],"input":"0xcde4efa9","decodedInput":{"decodeStatus":"success","methodID":"0xcde4efa9","signature":"flip()","params":[]},"decodedLogs":[{"decodeStatus":"success","address":"0x3A7798CA28CFE64C974f8196450e1464f43A0d1e","transactionLogIndex":"0x0","data":"0x00000000000000000000000000000000000000000000000000000000000000010000000000000000000000000000000000000000000000000000000000000006","topics":["0x5927497611fce42d91839eabbf64893ee7e8d42f58ec50184d189f0ce1b06208","0x00000000000000000000000029d2feadfa02c01871957b824d57479497cf6d1b"],"signature":"Flipped(index_topic_1 address from, bool value, int256 counter)","events":[{"name":"from","type":"address","value":"0x29d2feadfa02c01871957b824d57479497cf6d1b"},{"name":"value","type":"bool","value":true},{"name":"counter","type":"int256","value":"6"}]}],"isConnectedCall":1,"msgHash":"0xa09d73d8fa86bc28c943d8a6c7b5b8ca8a68af7c1d5a08468278598feba7ef2f"},"source":"bifrost-dot","commit":"1.0.0-d927045"}
